:020000040800F2
:10000000D4F80120A13C0008653600083D36000800
:100010003936000835360008313600080000000087
:100020000000000000000000000000002D36000865
:100030002936000800000000253600085535000864
:100040006936000869360008693600086936000814
:10005000693600086936000869360008413600082C
:10006000693600086936000869360008A9370008B3
:1000700069360008693600086936000869360008E4
:1000800069360008693600086936000869360008D4
:1000900069360008693600086936000869360008C4
:1000A00069360008693600086936000869360008B4
:1000B000E935000869360008693600086936000825
:1000C0006936000869360008693600086936000894
:1000D0006936000869360008693600086936000884
:1000E0006936000869360008693600086936000874
:1000F00069360008693600086936000821240008BE
:100100006936000869360008693600086D3600084F
:100110006936000869360008693600086936000843
:100120006936000869360008693600086936000833
:100130006936000869360008693600086936000823
:10014000693600086936000869360008953C0008E1
:100150006936000869360008693600086936000803
:1001600069360008693600086936000869360008F3
:1001700069360008693600086936000869360008E3
:1001800069360008693600082DE980480020A1B0D2
:1001900003F04CF9012003F049F9C34C022003F0AD
:1001A00045F9032003F042F9236BC04843F00103F3
:1001B0002363636C0DF1800B43F48043012263647D
:1001C0004BF8402D002559468DF844508DF8475086
:1001D00003F0D6FEB64BB74A1B68A2FB03235B09AC
:1001E000013BB3F1807F80F06387B34AB34953602A
:1001F000F020072381F8230095601360626BB04BF9
:1002000042F0400262631A6842F004021A605968C0
:10021000AB4AC907FBD5AB4E9068DFF84CA3DFF8BB
:100220004C93DFF84C83A84DA84C07F0CDFFA84BAA
:10023000A849A94A336100274FF07E53DFF834C341
:10024000DFF834E3A548CAF8003089F8007088F870
:1002500000702B629FEDA20ADFF82093DFF8208365
:100260008CF8007043F2C8234FF0010A0360C1F814
:100270000090C2F800808EF800A006F035FC07EE72
:10028000900AFAEEEF7A974BB761FCEEE77A042119
:10029000242237777061C6ED087A9F72DF721F7370
:1002A0005F739F731F701972771E5A72073607F0BB
:1002B00095FF84FB0032C317C3EBE20303EB830318
:1002C00003EB8303C31A07F8013FB742EFD1864B14
:1002D000864E874A5A6041F2F4547260DFF8A4C235
:1002E0008449DFF8A492844FDFED847A9FED847A0D
:1002F000CCF800104FF07C524FF001089A601A6061
:10030000B260326040F27752DFF880C2DA6003F800
:10031000048003F110007B4BDFF874E2F260B7EE6B
:10032000008A06F80480C9F800100024DFF864A2EF
:10033000C7ED017A00214FF4AF5287ED027AC7F87A
:1003400000E0C3F800E0C3F804A09C608CED008AD4
:1003500006F02CFB06F1100000214FF4AF5206F01E
:1003600025FB694A694BDFED6A7ADFF82C92694E0A
:10037000DFF828E26849C2F80C90C3F80C90966147
:100380009E61DFF81C92CEED007A4FF0785683F82C
:1003900000801C615C61DC615E609960DFF804A232
:1003A0005E4BDFF804E29FED5E7AC9F800A0916031
:1003B0005C4F5D49DFF8F49182F800801960CEF857
:1003C000009014615461D4615660584B584ADFF86C
:1003D000E09187ED007A4FF07A5A564F56495748C8
:1003E00017601960C9F800A0554ADFF8BC90DFF823
:1003F000C4E15449DFF8C0C1534F544BC0F810C09A
:100400000026C0F814C0096884601760CEF800A008
:1004100080ED038A06704660C461D9F830E04C4A2A
:100420004C4FC3F810C04FF0020AC3F814C08161EA
:100430004EF0080E99619C60DC611E705E6083ED79
:10044000038A454814601023594654609460D46070
:10045000D461546182ED068A2C603C606C60AC60B3
:10046000EC60EC616C617C60BC60FC60FC617C6198
:1004700085ED068A87ED068AC9F830E010938DF87D
:1004800044808DF846608DF847608DF845A003F0F4
:1004900077FDD9F83030314F314D324C43F00703FE
:1004A000C9F830308AE000BF003802400000024046
:1004B00074000020D34D621010E000E000ED00E079
:1004C0000008065024000010000000101F85EB51AA
:1004D0000000A04210160020C4150020C8F0012022
:1004E0000080BB4648000010EC160010E40000102D
:1004F000CDCC4CBE00007043DC160010AE47E13D91
:10050000DB0FC93FE42C00105C000010C00000109D
:1005100000004843CDCCCC3EA913D43EBCF0012012
:100520000080D444181300203333333FC0F001203F
:10053000C4F001209A99993E9A99D93DC815002096
:100540000C160020A8000020BEB5A437E815002036
:10055000A000001080000010000C024000040240C7
:1005600000080240000000207C000010580000102D
:10057000E2000010E1000010E0000010C41B0020A9
:10058000E4E60020DC2C0010D4160010CCF0012092
:10059000000048428FC2F53D6666663F1413002096
:1005A000D0F00120CDCCCC3DB0F00120CDCC4C3CE6
:1005B000A8F00120ACF00120CDCC4C3F38464FF4E0
:1005C0001073594610938DF844A08DF845A08DF80E
:1005D00046808DF8476003F0D3FC3B6A23F07063DC
:1005E0003B623B6A43F080633B627B6A23F0F0032B
:1005F0007B627B6A43F040037B6228464FF4A05342
:10060000594610938DF844A08DF845A08DF84660AA
:100610008DF8476003F0B4FCC748036A23F47023E5
:100620000362036A43F4C02303626B6A23F47063BA
:100630006B626B6A43F4C0636B622368534500F0DE
:10064000388510235946109303F09AFC6B6A23F403
:1006500070236B626B6A43F4C0236B62B74D022256
:1006600000235946802628468DF844208DF84520E1
:100670008DF846308DF84730109603F081FC2B6AD8
:10068000AF4A23F070432B622B6A102143F0C04322
:100690002B6244F6FF735183013BFDD1A84BA94A5D
:1006A000A94910201883136C43F400131364136AD0
:1006B00043F400131362136A23F4001313620B88CC
:1006C0009BB243F001030B808888936820F03F00C1
:1006D00003F00C030004042B4FEA104000F0BF8528
:1006E000082B40F0B985556853686F0203F03F014D
:1006F00040F143855568954AB2FBF1F3C5F3881282
:1007000003FB02F38F4A5268C2F3014201325200E6
:10071000B3FBF2F38B4EDFF84CE2B1688C4D8A4AA2
:100720008C4FC1F3031C44F233011EF80C80D6F841
:1007300008C0CCF3822C23FA08F31EF80CC0B6686C
:1007400023FA0CF3A5FB03C5AD0CC6F342362843D0
:100750001EF80660908010889B09A7FB03639B0925
:1007600020F00100032B4FEA004098BF042301351D
:10077000000C10801584938313889BB243F001030F
:100780001380138823F4816323F002031B041B0CE2
:1007900043F48063138002201181012103F0D0F81B
:1007A000AF210546042003F0CBF86B4BAF22054484
:1007B000812105201A7003F0C3F8042105440620A6
:1007C00003F0BEF8CB210544202003F0B9F8212026
:1007D000CB2103F0B5F82368022B19D101210820A1
:1007E00003F0AEF801210646092003F0A9F8C02164
:1007F00006440E2003F0A4F83544002105441420DB
:1008000003F09EF800210544152003F099F80544F3
:100810009E21022003F094F8002105440A2003F0F1
:100820008FF82368022B054404D00E20042103F026
:1008300087F805440021272003F082F80F210544A2
:100840001F2003F07DF80A2105441A2003F078F8F0
:100850000A2105441B2003F073F83A493F4E0B6C04
:1008600043F400430B640B6A43F400430B620B6ACE
:1008700023F400430B62B28B22F47B6222F00F025E
:100880001204120C0223B2833384B68B8A682B18AD
:10089000B0B2160203D58A6822F400028A60294D9C
:1008A0002A4AD5F88410D5F88470D5F804C0DFF84A
:1008B000B8E02B4DC1F38816C7F302770CF03F0167
:1008C000B2FBF1F106FB01F1B1FBF7F10A0A02EB11
:1008D00082014900AEFB0112D20A053292B2A5FB99
:1008E0000212D20802F001015208951E0902FD2DE4
:1008F00089B29CBF41F400710A43184988BF40F295
:10090000022240F420600A8488832268022A2DD1C2
:100910000C48026C01F5605142F0005202640A6812
:10092000129822F47F6222F00E0202430A600A68E3
:1009300042F001020A6019E0000002400008024093
:10094000000C0240003802400054004000127A00BF
:1009500083DE1B43632D3E0512130020003C004044
:10096000CDCCCCCC60000020D34D6210002B00F029
:10097000C183DC4D0EAE2168DB48DC4CDC4AAA604A
:100980004FF4C863036020462B6103F051FA2368DB
:10099000D84A43F001032360938B5D0504D4938B05
:1009A0009BB243F480639383D34ADFF89083D34BA5
:1009B000D34CD449D44808600025012715601F7026
:1009C000D8F83030DFF878A33B43C8F830304FF424
:1009D000D052204602234FF00309594610928DF859
:1009E00044308DF846508DF847508DF8459003F00F
:1009F000C7FA636A23F0F0036362636A43F0A003FB
:100A00006362636A23F470436362636A43F420435E
:100A10006362636A23F470236362636A43F420238E
:100A2000636220464FF48063594610938DF84670F8
:100A30008DF847708DF8459003F0A2FA636AB34AC7
:100A4000B34923F470636362636A43F420636362AF
:100A5000D8F8443043F48043C8F84430D8F83430F0
:100A60004FF0006443F08003C8F83430304694609F
:100A70001C23D1608DF838308DF839508DF83A70DC
:100A80008DF83B7005F030F8D8F840303B43C8F89B
:100A90004030284602F03AFD9AF804308AF80050B7
:100AA0004022072B8AF801508AF802508AF8037016
:100AB0008AF81C708AF820508AF821708AF806207B
:100AC000DFF8808207D803F5317308EB43039A8877
:100AD000C2F30E029A809AF80530072B07D803F567
:100AE000317308EB43039A88C2F30E029A80894956
:100AF000894CCAF8441100230821C8F81033CAF8F9
:100B00004841C8F81433C8F8503388F88C33C8F813
:100B10001833C8F8543388F88D33C8F81C33C8F834
:100B2000583388F88E33C8F82033C8F85C3388F817
:100B30008F33C8F82433C8F8603388F89033C8F886
:100B40002833C8F8643388F89133C8F82C33C8F8D0
:100B5000683388F89233C8F83033C8F86C3388F8B3
:100B60009333C8F83433C8F8703388F89433C8F82E
:100B70003833C8F8743388F89533C8F83C33A8F88C
:100B8000B21388F800104021A8F80410042188F856
:100B900001104FF4A071DFF8B091DFF8B0C1A8F8F0
:100BA000061002214FF0A0425C4888F808105C490A
:100BB000DFF89CE15B4F5C4E5C4DC8F8109001245F
:100BC00009F55879C8F818C0ACF5A06CC8F87833A6
:100BD000C8F80C2088F8963388F80330C8F84033FA
:100BE000C8F854E0C8F87C33C8F81C7088F897330C
:100BF000C8F85860C8F84433C8F82050C8F88033A3
:100C0000C8F85C0088F89833C8F82410C8F848334E
:100C1000C8F86090C8F88433A0F5E06088F899338C
:100C2000A1F58C61C8F84C3388F80240C8F88833C5
:100C300088F80B4088F89A33C8F814C09368C8F84D
:100C4000CC00C8F89010A9F5C8690CF5A07CAEF5E9
:100C5000B46EA7F56877A6F5B066A5F5607500F5E2
:100C6000D07001F53061C8F89490C8F898C0C8F801
:100C70009CE0C8F8A070C8F8A460C8F8A850C8F8EC
:100C8000AC00C8F8D0100CF52B5CDFF8C8E02848A1
:100C9000284E294DC8F8D8C0A1F5007123F00103F2
:100CA00009F5D7594FF05027C8F8DCE0C8F80C1107
:100CB000C8F8D490C8F8E070C8F8E460C8F8E85004
:100CC000C8F8EC009360D36843F04003D36003F0AE
:100CD000EDF898F80920D8F80C30002A08BF4FF436
:100CE000341239E08815002070000020B8600240FE
:100CF00040050020003C00404C0000203C05002046
:100D0000000002400C130020C011002000ED00E0A4
:100D10000005FA055000002004000020400B0050A0
:100D20006009005020090050200B0050400900507D
:100D300000800050006000500070005000380240F9
:100D4000C0110020141600200008005000090050B7
:100D5000000B00500040005018BF4FF474129A630B
:100D60002146142002F08AFB98F80330D8F80C20B2
:100D7000A34206D19368052161F3440343F02003A5
:100D80009360D3682C4E6FF39E7343F000530121A0
:100D9000D360322002F072FB304602F0B7FBD8F885
:100DA0000C317269244E00241C6098F80830012B25
:100DB000136816BF012164F3010361F3010313609B
:100DC000304604F0D1FAD8F8142013686FF3820388
:100DD000136098F80B30012B254600F04382F2682F
:100DE000164900230D930D9B43F020030D930D9B9B
:100DF00023F4F86343F480630D930D9B136113692F
:100E00000D9303E013690D93013902D00D9B9C06ED
:100E1000F8D40221032002F031FB00230E930E9A36
:100E2000D8F80C30054942F010020E920E9A1A6161
:100E30001A690E9208E000BF14160020400D03004E
:100E40001A690E92013902D00E9AD006F8D4032006
:100E5000022102F013FB98F800009F4900285BD0A4
:100E6000D1F890404FF0FF3200230128A260E360E8
:100E700052D0D1F894400228A260E3604CD0D1F85F
:100E800098400328A260E36046D0D1F89C40042833
:100E9000A260E36040D0D1F8A0400528A260E360E2
:100EA0003AD0D1F8A4400628A260E36034D0D1F84B
:100EB000A8400728A260E3602ED0D1F8AC400828F3
:100EC000A260E36028D0D1F8B01009288A60CB6016
:100ED00022D0D8F8B4408049A2600A28E3601BD031
:100EE000D1F8B8400B28A260E36015D0D1F8BC401F
:100EF0000C28A260E3600FD0D1F8C0400D28A2609A
:100F0000E36009D0D1F8C4400E28A260E36003D0AA
:100F1000D1F8C8108A60CB60704BD8F8CC20012182
:100F2000598313686FF382036FF341036FF3C303B5
:100F30006FF34513D90402D443F480531360C820DF
:100F4000012102F09BFADAF84821D8F80C3098F821
:100F5000034011686248634F00229A6194424FF047
:100F6000FF325A616FF080445A6014BF0022102291
:100F70005C6142F00C529861986942F4001242F0B0
:100F8000080202439A619A6842F001029A60884717
:100F9000554B564ADA600124432358468DF84030B9
:100FA0008DF841408DF842408DF8434004F09CFD9F
:100FB0001722022358468DF840208DF842308DF8D4
:100FC00041408DF8434004F08FFD5B46C346984690
:100FD00002238DF83330DBF810234FF00009002A8C
:100FE00048D19AF800204249002A40F0EF86DBF809
:100FF0001033002B40F036874FF0804301213960D9
:101000001A8822F001021204120C1A809A8922F026
:1010100001021204120C9A811A8822F45C721204E2
:10102000120C1A8042F6DF644FF6FE720520DC6275
:10103000188599821A821A8892B242F080021A8028
:101040009A8992B20A439A811A8892B20A431A8004
:101050003B68002BFCD14FF08042138823F0010342
:101060001B041B0C138002238DF83330DBF8102394
:10107000002AB6D09AF800300A2BBDD801A252F847
:1010800023F000BFEF0F00085D130008D31D000818
:10109000F90F00080B130008F5140008D712000818
:1010A000AD12000885120008F90F00081715000896
:1010B000FEE7D9F8303043F00103C9F83030102290
:1010C0000323594610928DF847608DF8443002F0A2
:1010D00057FFFFF7C3BA00BF1416002000080240F4
:1010E000000800808415002000ED00E00006FA05ED
:1010F000C01100202768012F52D08C4D0DF134080B
:101100002368012B43D08A4A8A48136B43F40013A7
:1011100043F001031363136C0EAE43F000531364EA
:1011200003273146102200230E928DF83F308DF8B0
:101130003C7002F025FF8048129A03687F4923F42F
:101140007F6323F00E0313430360036843F001033E
:1011500003608B889BB243F080038B803322012392
:1011600040468DF835708DF836708DF834208DF846
:10117000373004F0B9FCFFF7FEBB5268704BB3FB8D
:10118000F1F3C2F3881203FB02F3FFF7BBBA6B4A19
:1011900093889BB243F0020393800EAEFFF7EBBB44
:1011A0006348684E026B614DDFF8ACE1664942F47A
:1011B00000120263326822F00102326032684FF09E
:1011C000210922F001024FF03D5A3260304633606F
:1011D0004FF6FE7C73604FF48072B3604FF04008AE
:1011E000F3603361C6F81490CEF80CA04FF4806918
:1011F0004FF4005E2B60AB606B61EB622B636B6343
:10120000AB634FF4006A4FF44033C5F80C806A6258
:10121000AB626960C5F810C0C5F81890C5F81CA08D
:10122000C5F820E002F004FE336843F01003336099
:1012300033680DF1340843F0080333602F22032391
:1012400040468DF837708DF834208DF835308DF8A4
:10125000363004F049FC53E7394BFFF75BBA3B4BA0
:10126000FFF758BA2123A121F26863F30F0461F359
:101270000F05C0F28004C0F2800553629462C2F888
:101280000051ADE5DAF84831314C9B6B98470128A5
:101290007FF4B2AED4F844312E481B6821469847FB
:1012A00000287FF4A9AE05232370A5E69AF81C3028
:1012B0008AF81290013B0A2B3FF69EAEDFE813F04E
:1012C00050053D051D050805DC04C904AD048F0467
:1012D000710460047605DAF844311D4C1D48DB6862
:1012E000214698478DF833009DF83330DBB21A1F42
:1012F000012A40F2F385062B7FF47EAED4F8483104
:101300000A221B682270984776E69AF80230092B69
:101310003FF672AEDFE813F0D00362030A02B801B1
:101320005902290282015E013D0135018815002024
:10133000003802400000024000740040003C0040C1
:101340000024F400B86002400C3C004000127A0017
:10135000C01100201416002000600240DAF8483165
:10136000C64C9B689847BBF98C25C54B002A80F278
:10137000F585B3F98E25002A80F2DD85B3F9902535
:10138000002A80F2BF85B3F99225002A80F2F28507
:10139000B3F99425002A80F2F385B3F99625002A43
:1013A00080F2F485B3F99825002A80F2EC85B3F930
:1013B0009A35002B80F2E185FF236371BBF98E25FE
:1013C000AF4B002A80F2D385B3F99025002A80F232
:1013D000CB85B3F99225002A80F2C385B3F9942511
:1013E000002A80F23D86B3F99625002A80F23586E0
:1013F000B3F99825002A80F22D86B3F99A35002B8F
:10140000B8BFFF2380F223869D488AF8043003F09A
:10141000ABFFDAF84831DB689847DBF8CC20DAF824
:1014200048311068C0F341408AF82100042200F0DE
:1014300003009B698AF8002098479AF804109AF8EC
:1014400021400BEB41020BEB4113B2F88C0583F802
:10145000B19300F07F0501F11E02C0F3C0100BEB49
:10146000421283F8AE039AF8200083F8AC039AF88E
:10147000060083F8AD53A3F8B20383F8AF4382F8B4
:10148000049003F56A7382F805900CB901221A7270
:101490007B4803F0F3FE9AF805109AF821400BEB15
:1014A00041020BEB4113B2F88C0583F8B19300F0C5
:1014B0007F0501F11E02C0F3C0100BEB421283F84E
:1014C000AE039AF8200083F8AC039AF8060083F87C
:1014D000AD53A3F8B20383F8AF4382F8049003F549
:1014E0006A7382F805900CB901221A72644803F0FD
:1014F000C5FE81E5DAF84431604C9B6860482146BE
:1015000098478DF833009DF83330002B7FF4ECAE14
:101510000623237070E59AF804308AF800900122BF
:101520008AF803208AF81C208AF82120072B4FF024
:1015300040028AF801908AF802908AF820908AF88E
:10154000062007D803F531730BEB43039A88C2F3E7
:101550000E029A809AF80530072B07D803F53173ED
:101560000BEB43039A88C2F30E029A80DAF84831F3
:101570005B689847DAF8443141485B6841499847CD
:101580003AE5DAF848315B6B984708238AF800306F
:1015900032E59AF803209AF83930AAF81630092172
:1015A000012A8AF81490AAF81890AAF81A908AF8D2
:1015B0001510324B00F00585022A7FF41DAD1A7F0D
:1015C0000D2A00F0B6850B3A012A3FF615AD01222F
:1015D000DA7011E59AF83230284C002B00F025859E
:1015E00043F44073E278E38280210623217563751A
:1015F00040F20941FF23012A2183638300F07684AE
:10160000022A7FF4F9AC237F0D2B00F02E860B3BD2
:10161000012B3FF6F1AC0123E370EDE49AF8313091
:10162000164C002B00F00A8543F44073E278E38205
:10163000802106232175637540F20941FF23012AA9
:101640002183638300F05284022A7FF4D5AC237F88
:101650000D2BDCD19BF8112184F81C900123032A67
:10166000E370074B00F0E985DAF848314046DB6A61
:10167000984707238AF80230BEE400BFC01100205B
:1016800014160020E01100209AF80320AAF8189000
:1016900080214FF4007306208AF81410012A4FF0BD
:1016A0000901AAF816308AF81500AAF81A10C24BD8
:1016B00000F0B684022A7FF49FAC1A7F0D2A82D1F3
:1016C0009BF81311BD489BF81221827002EB012296
:1016D000DA860122DA70B94A9BF81041147083F857
:1016E0003440B64CC1709BF811019BF814119BF863
:1016F0001521607083F835009BF81601217183F87D
:10170000381062719BF8171183F83920A0719BF88B
:10171000182183F83A00042083F81C90E17183F8C3
:101720003B10227283F83C20987065E49AF803100D
:101730008AF81490012005248142AAF81890AAF88A
:101740001A908AF81540AAF816009B4A00F04684C1
:1017500002297FF451AC137F0D2B00F0F5840B3B75
:10176000012B3FF649ACD07046E49AF83030924CE9
:10177000002B00F04C8443F44073E278E382802134
:1017800006232175637540F20941FF23012A218355
:10179000638300F0AB83022A7FF42EAC237F0D2BF2
:1017A0007FF435AF9BF8112184F81C900123032AA4
:1017B000E370834B00F02985DAF8483140469B6A94
:1017C000984706238AF8023016E49AF80320BAF8FC
:1017D0003640AAF81890802306218AF81430012A8E
:1017E0004FF40073AAF81630AAF81A408AF81510B8
:1017F000714B00F00084022A7FF4FEAB1A7F0D2AA1
:101800007FF4E1AE012283F81C90DA7034B1621EDD
:1018100092B2013269486B4905F02EF89BF813210A
:101820009BF810119BF812318AF834109BF81111B3
:101830009BF815018AF8351003EB02239BF816116B
:101840009BF814218AF839009BB29BF817018AF89B
:101850003A10092C9BF81811AAF836308AF838206B
:101860008AF83B008AF83C1040F298800A2A00F27D
:101870008F80554A534E12780792544ACDF828B0BB
:10188000128806924FF0090CCDF82C8063457BD965
:101890003278164494447278042A1FFA8CFCF5D1ED
:1018A00096F8038096F802E0B8F1020FEED832788D
:1018B0000192727935790292B2790392F2790492A7
:1018C000022D327A0592E1D84FFA8EF31AB24049CE
:1018D0000993002402EBC20312010B440892204634
:1018E0000095009A82424BDD327816449444727817
:1018F000052A1FFA8CFCF4D1079A09998A42727959
:1019000000F0B1839DF804101970042159709DF8FE
:10191000001019719DF8081059719DF80C109971FB
:101920009DF81010D9719DF814101972317983F84F
:1019300002E083F803801202CDF81CE0089D4FF00E
:10194000080B0A4423491BFB005092B201EB000B29
:101950001546069232780A54B2788BF80220013488
:10196000B2798BF806200520E4B2009A8BF80100CA
:1019700060B2F178ABF8045082428BF80310B3DC0C
:10198000BAF83630634583D8DDF828B0DDF82C800E
:101990000E4BA3F800900C4B83F800900E48DAF839
:1019A000483100F10A015B6A00F16402984705239F
:1019B0008AF80230FFF720BBC0110020201300205E
:1019C00014160020241700201C13002010130020E0
:1019D000FE11002058120020F41100209AF8035044
:1019E000AAF81890802306214FF480728AF81430E8
:1019F000012D4FF012038AF81510AAF81620AAF844
:101A00001A30E64C00F0C582022D7FF4F5AA237F40
:101A10000D2B7FF4FCAD9BF812219BF818319BF83D
:101A200013019BF8191184F81C9002EB002003EBC2
:101A300001219BF81B219BF81A31A08403EB0222A1
:101A40009BF81D019BF81C31618503EB00239BF87B
:101A50001111A285E3859BF814219BF8153184F8B8
:101A6000231084F826209BF816119BF8172184F880
:101A700027309BF81E319BF8100184F8281084F859
:101A800029209BF81F119BF8202184F83030012673
:101A90009BF8213184F8220084F8311084F8322038
:101AA000E67084F83330D4F8483104F12200DB6961
:101AB0009847A570FFF7A0BA9AF80330AAF81890D3
:101AC000802206204FF480718AF81420012B4FF0F9
:101AD00008028AF81500AAF81610AAF81A20AF4CC6
:101AE00000F06382022B7FF487AA237F0D2B7FF403
:101AF0008EAD9BF813019BF812319BF810119BF8E7
:101B0000112184F8221003EB0023A3849BF81431E5
:101B10009BF8151184F8232084F826309BF81621B1
:101B20009BF8173184F82710012584F8282084F8C1
:101B300029309B48A37184F81C90E57003F014FCD5
:101B40006179A279A5700BEB411303F56A7358898B
:101B5000904201D002B15A81914803F08FFB9AF86C
:101B600004109AF806200BEB411303F56A735889A9
:101B700090423FF4BBAC002A3FF4B8AC5A81B5E4C4
:101B80009AF80530854A5B4493F89B33DBB2012B0E
:101B900000F08A82022B00F0D382032B7FF42CAA60
:101BA000A6E09AF805000BEB40131A4683F8AE93B3
:101BB000C3F8BC93C3F8C09302230BEB000182F877
:101BC000B433012382F8C533C2F8B89381F89B93EC
:101BD00003F0ECFE0A238AF81C30FFF70DBA9AF8DE
:101BE00004306E496E4A5B4493F89B33DBB2012BA1
:101BF00000F05A82032B7BD052696A4892680C8AA3
:101C0000008892B2121B824272D8042B7FF4F4A98E
:101C10004A788B740A70FFF7EFB99AF804000BEB5F
:101C200040131A46012183F8AE13C3F8BC930BEBA3
:101C30000001C3F8C093022382F8B433C2F8B8930A
:101C400081F89B9303F0B2FE08238AF81C30FFF75B
:101C5000D3B99AF80530514A5B4493F89B33DBB211
:101C6000012B00F05A82042B00F04E82022B94D1FB
:101C700005231377FFF7C0B99AF80500DAF8084092
:101C8000BAF80C6000F1150200F11E0143010BEBE4
:101C9000421C0BEB41110BEB030E0BEB42125B44AE
:101CA00001254D71CCF8184102210BEB0004C3F85B
:101CB000C0938EF8AE93CEF8BC6382F8141184F80A
:101CC0009B9303F073FE06238AF81C30FFF794B948
:101CD0009AF80430314A5B4493F89B33DBB2012B12
:101CE00000F02C81042B00F00F82032B40F02881A0
:101CF0000B238AF81C30FFF77FB99AF80400BAF872
:101D00000C400BEB40131A46012183F8AE13C3F8C5
:101D1000C093C3F8BC4302230BEB000182F8B43339
:101D2000DAF80830C2F8B83381F89B9303F03EFE2E
:101D300004238AF81C30FFF75FB99AF80520174B87
:101D40005A4492F89B23D2B2012A00F0C381032A9D
:101D50007FF452A90B21052219779A74FFF74CB929
:101D60009AF80500104C0BEB40131A460821C3F8F3
:101D7000BC1383F8AE93C3F8C09303210BEB0003AD
:101D8000C2F8B84382F8B41383F89B9303F00EFEB5
:101D900002238AF81C30FFF72FB900BFC0110020C2
:101DA000141600203E050020D41100209AF80E30B1
:101DB000C24A0133DBB2022B8AF80E3040F2A08116
:101DC0000821537891741370FFF716B99A4200D026
:101DD0000B70DAF848311B6998479AF804308AF892
:101DE000009001228AF803208AF81C208AF821201A
:101DF000072B4FF040028AF801908AF802908AF887
:101E000020908AF8062007D803F531730BEB4303C3
:101E10009A88C2F30E029A809AF80530072B07D8E9
:101E200003F531730BEB43039A88C2F30E029A80D9
:101E3000DAF848315B689847DAF84431A0485B68C3
:101E4000A0499847ABF89095ABF89295ABF894956C
:101E5000ABF89695ABF89895ABF89A958AF8009000
:101E6000FFF7CAB84FF0804364223A601A8822F024
:101E7000010212040121120C8AF800101A809A89BA
:101E800022F001021204120C9A811A8822F45C7268
:101E90001204120C1A8042F6DF644FF6FE7205201F
:101EA000DC62188599821A821A8892B242F0800206
:101EB0001A809A8992B20A439A811A8892B20A4386
:101EC0001A803B68002BFCD14FF08042138823F02E
:101ED00001031B041B0C1380FFF78EB8D4F84831A4
:101EE0005B6C98470A232370FFF786B87649A16098
:101EF0000420A38107210223227760702170E37000
:101F0000FFF77AB802231A460BEB42024FF4004166
:101F1000A2F88C15BBF88C258AF8053013043FF520
:101F20004DAA00231A460BEB420248F28001A2F8A8
:101F30008C15FFF769BA01231A46E5E709231377E1
:101F4000DBF81430614A9B68BAF8101012889BB213
:101F50005B1A93423FF6CCAEFFF74EB800231A4609
:101F6000D2E703231A46DEE702231A46DBE7012302
:101F70001A46D8E703231A46C6E707231A46C3E7DB
:101F800004231A46C0E706231A46BDE705231A466E
:101F9000BAE74D4AA2600421A381072202232577D4
:101FA00061702270E370FFF727B804214648A281D0
:101FB000237707220223A06061702270E370FFF78D
:101FC0001BB804201A7707210222C3F80890A3F84F
:101FD0000C9058701970DA70FFF70EB8042311775F
:101FE000537007210223C2F80890A2F80C901170D8
:101FF000D370FFF701B83449996004209C81072110
:102000001A77022258701970DA70FEF7F5BFD4F80B
:1020100048312F489B6A98470623A370FEF7ECBF10
:10202000294C9C6004209981E9E7D4F8483128487C
:102030001B6B98470823A370FEF7DEBFD4F8483126
:102040002348DB6A98470723A370FEF7D5BF072311
:102050001A4668E706231A4665E705231A4662E72B
:1020600004231A465FE73179069D120201EB020B49
:102070005D453FF785AC9DF804501D7004255D70EB
:102080009DF800501D719DF808505D719DF80C5031
:102090009D719DF81050DD719DF8145083F802E099
:1020A00083F803801D7249E49AF801308AF8003001
:1020B0000D238AF81C30FEF79FBF00BFC01100201F
:1020C00014160020E0110020241700203E050020F7
:1020D000308200081A7D598B22F07F02D2B201B300
:1020E000784841F288310180002A40F0E8800522DA
:1020F0001A77DBF814309B68AAF81030FEF77CBF23
:1021000001231377FEF778BF9AF801308AF8003080
:102110000C238AF81C30FEF76FBF07231377FEF7F6
:102120006BBF684832210180002A6BD107221A77E1
:10213000DFE7012283F81C909970DA70FEF75CBF2C
:1021400009231377FEF758BF4FF080433960198891
:10215000D07021F001010904090C1980998982F8D5
:102160001C9021F001021204120C9A811A8822F4A8
:102170005C721204120C1A8042F6DF614FF6FE7296
:10218000D9621C8598821A821A8892B242F0800223
:102190001A809A8992B242F001029A811A8892B208
:1021A00042F001021A803B68002BFCD14FF08042C4
:1021B000012113888AF8201023F00103DAF848116E
:1021C0001B041B0C13800B6A98479AF820309AF86E
:1021D000041003228AF802201BB10BEB411282F893
:1021E000AC33394C204603F049F89AF820309AF87D
:1021F0000510002B3FF47AA904EB411484F8AC33AA
:10220000FFF774B909221A7773E793F81031023B8C
:10221000FF2BA8BFFF239BB2414653B100220BEB1B
:102220000200023292B290F8120101F8010B9342BF
:10223000F5D881F80090FFF7BFBA93F81031023B50
:10224000FF2BA8BFFF239BB2414653B100220BEBEB
:102250000200023292B290F8120101F8010B93428F
:10226000F5D881F80090FFF7FFB99BF8112184F8A9
:102270001C900123032AE370134B09D0DAF848318C
:1022800040461B6B984708238AF80230FEF7B4BE1D
:1022900093F81031023BFF2BA8BFFF239BB24146AE
:1022A00053B100220BEB0200023292B290F81201FD
:1022B00001F8010B9342F5D881F80090DEE7032284
:1022C0001A7716E73E0500201416002000207047FC
:1022D000704700BF024B9B684FF480421A837047DF
:1022E0007C00002001207047024B1B684FF4805295
:1022F0005A8370477C000020024B1B684FF48052C9
:102300001A8370477C000020704700BF704700BFF1
:10231000704700BF704700BF704700BF704700BFE5
:10232000704700BF704700BF024B1B684FF48052DC
:102330005A8370477C000020024B1B684FF4805288
:102340005A8370477C000020704700BF704700BF71
:102350000020704710B4304B93F8422087B08ABBFE
:1023600093F8412032B92D4B00221A7007B05DF866
:10237000044B704700EB8202D2F890100A6842F0DA
:102380004042540315D4C468E46AC4F30744B4B1AA
:102390000A6093F84120072A07D800EB4200B0F802
:1023A0008C25C2F30E02A0F88C25002283F8412070
:1023B000D9E744692469C4F30744002CE8D16FF3DA
:1023C000DF72E5E700EB8202D2F89040226842F02B
:1023D0004042510318D4C168C96A0391C1F307414F
:1023E00009B96FF3DF72226093F84220072A07D8F9
:1023F00000EB4202B2F88C15C1F30E01A2F88C1565
:10240000002283F84220ABE7416909690191C1F3D9
:1024100007410029E5D0E6E724150020201500201B
:1024200070B5114C63681A010CD5104E10487368D2
:102430004FF400555D8303F07DFB72684FF000633D
:102440001583E360084C63685B010CD5074E0948AF
:1024500073684FF400555D8303F06CFB72684FF0B6
:1024600080631583E36070BD006002407C00002043
:10247000800B002040050020D0F81033002B00F026
:1024800093802DE9F04F834C2378032B89B012D031
:10249000042B0CD194F84120831893F89B53012D01
:1024A00040F2848093F89B33042B00F0BD80002021
:1024B00009B0BDE8F08F94F84150774B03EB451716
:1024C0006E0105F1150299194FF0010803EB421056
:1024D00097F8C47381F8AE834FF0400E04EB080CFC
:1024E000C1F8BCE3C0F818C1002F66D04FF0020E4F
:1024F0007746981903EB4212B0F8B28382F8147150
:102500000022C0F8C02308F13F019819B1FBF8F18F
:1025100089B2B1F5807FB0F8B29393F803A088BF79
:102520004FF4807803EB050788BF414687F89B236B
:1025300098BFC1F3090803EB850709FB01F161F3BB
:102540001202D7F89070C0F8BC1368F3DC426EF347
:102550005E72BAF1010FD3F814E03A6108BFC7F810
:1025600014C03A68DEF80800DFF82CC100F0010062
:1025700080F0010060F35D7242F000426FF39E72E2
:102580003A60D878002838D10CEB060202F56A725E
:102590009079002831D100292FD0527A032A1CD8F3
:1025A000DFE802F0340D340D002070473B4B1A7801
:1025B000012A5CD00323237079E7BE4699E7DEF851
:1025C00010000390CA1C80B2C2F38F02904204D262
:1025D000D868826942F08062826103EB850389B228
:1025E0000331D3F8D0508B1007D02D49002201328F
:1025F00051F8040B28609342F9D1284A01210423A1
:1026000000201170237009B0BDE8F08FDE68F06A19
:102610000590CA1C80B2C2F38F029042DDD2B2692B
:1026200042F02002B261D8E794F844500D831E3284
:1026300000EB421000232A064FF002074FF001067C
:10264000CB824B830F754E754CBF03714371CB78B2
:10265000012B13D0022B7FF42AAF0B7F0D2B00F040
:10266000D0840B3B012B9CBF0123CB701FE7A278CA
:1026700000211970B2B90023A3709BE70C780B7787
:102680000720002302224C7008708B608B81CA7077
:102690000DE700BF2415002014160020201500208F
:1026A00025150020DC49DD4BC86802F0F0024FF42C
:1026B00000450821B02A05831960DCD1E37821792F
:1026C000023B682BD7D801A252F823F0DB2C00087C
:1026D000A52C0008772C000877260008772600082C
:1026E0007726000895280008A92800087726000802
:1026F0007726000871280008652B0008452C000883
:102700002D2C00087726000877260008FD2B0008EE
:10271000DF2B0008EB2A0008C52A0008952A0008CC
:102720008D2A00081D2B0008092B0008272B000804
:10273000812A0008E1290008C5290008ED290008C0
:1027400077260008772600087726000877260008F5
:102750007726000877260008292900089D28000808
:1027600077260008352B0008F52800087726000892
:1027700077260008772600087726000877260008C5
:1027800077260008772600087726000877260008B5
:10279000772600087726000895280008A928000851
:1027A00071280008E32F0008C92F0008AF2F000888
:1027B0007726000877260008772600087726000885
:1027C0007726000877260008952F00087B2F000841
:1027D000672F00087726000877260008772600086C
:1027E0007726000877260008772600087726000855
:1027F0007726000877260008772600087726000845
:1028000077260008772600089D280008772600080C
:1028100077260008772600083B2F0008312F000894
:10282000272F0008012F0008E72E0008612E00085E
:10283000792D0008692D00084B2D0008432D000854
:102840003B2D0008172D0008F32C00087726000800
:10285000772600087726000877260008AD2B0008A9
:10286000452F000877260008DD2800084D2B0008BA
:1028700007EE901A9FED6A7A6A4BF8EEE77AC7EE98
:10288000877AB1EE087A67EEA77A67EE877AC3EDAA
:10289000067AF0E6084602F059FFECE67F297FF45D
:1028A000EAAE03F0DFFDE6E607EE901A9FED5C7AF4
:1028B000DFED5D6A5B4BF8EEE77AC7EE877AB7EE3D
:1028C000007A77EE677AF4EEE67AF1EE10FAC3ED6D
:1028D000037A7FF5D0AE554ADA60CCE607EE901A5F
:1028E0009FED537A534BF8EEE77A67EE877AC3EDA4
:1028F000007AC0E67F297FF4BEAE4F4B1A6847F2DC
:102900001B518A429CBF14321A604C4A19681368E2
:102910004B4AA3EB8103934280F0AA8103F5EA338B
:10292000484ABC331360A6E67F297FF4A4AE464B29
:10293000464D474A5A606A604FF07C521A6041F235
:10294000F45CAA602A609A6040F27752EA60DA602A
:10295000DFF81C91DFF81C813E4F3F4E3F499FED51
:10296000407ADFED407ADFF810E1C9F8001001226B
:1029700003F80C2003F110003B4B05F80C20C8F8BD
:1029800000104FF07E5CDFF8F4B087ED017A4FF075
:10299000000A00214FF4AF52C7ED027AC7F800E0F9
:1029A000C6F800E0C6F804B0C6F808A0C3F800C036
:1029B00003F0FCFF05F1100000214FF4AF5203F0CB
:1029C000F5FF58E6002900F026837F297FF453AEF7
:1029D00041F2F4531D481C49FF22C254CA544AE62E
:1029E0003F29224B4FD800221A7044E6002900F0FC
:1029F0001F837F297FF43FAE134E144D96ED010ADD
:102A000004F022F886ED010A95ED010A04F01CF8A5
:102A100085ED010A2FE600BF7C000020781500201C
:102A20000000FE425C0000100AD7233C0AD7233C7A
:102A30000402813EA0000010C8F00120C41500204F
:102A4000C41B002010160020EC160010E40000103B
:102A5000CDCC4CBEDC160010E42C001000007043FE
:102A6000AE47E13DDB0FC93FCCF00120E200001092
:102A7000D4160010DC2C0010000048428FC2F53D37
:102A80003F29CA4BAFD901221A70F4E53F29C84B40
:102A9000A9D9F8E707EE901A9FEDC66A9FEDC67AAE
:102AA000C64BC74AD3ED016AC64BF8EEE77AA7EEEC
:102AB000867AF0EE477A27EE267AC2ED007A83ED29
:102AC000017AD8E507EE901AB8EEE77ADFEDBE7A24
:102AD000DFEDBE6ABE4ABF4B67EE277AC7EEA67A25
:102AE000C2ED017AC3ED017AC5E507EE901A9FEDBC
:102AF000BA7AB24AB34BF8EEE77A67EE877AC2ED5C
:102B0000007AC3ED007AB6E5002900F08D827F29B6
:102B10007FF4B1ADB14B01229A73ACE53F29B04BC4
:102B20007FF661AFAFE73F29AC4B8CBF012200229B
:102B3000DA72A0E57F297FF49EADAA4B1A68B2F540
:102B4000877F7FF6E2AE143A1A60DEE607EE901A4F
:102B50009FEDA57AA54BF8EEE77A67EE877AC3ED8D
:102B6000027A88E507EE901A9FEDA17AA14AF8EE65
:102B7000E77A67EE877AFCEEE77ACDED017A9DF889
:102B800004301370642B00F244826422C3EB0323ED
:102B900093FBF2F3DAB21932D5B22946202000F0C5
:102BA000CFFE2946212000F0CBFE64E507EE901A07
:102BB000DFED915ADFED916A9FED917A9FED916A79
:102BC000914A924BF8EEE77AE7EEA56A66EE877ACD
:102BD000C2ED006AC7EE867AC3ED007A4BE507EED8
:102BE000901A9FED8B7A8B4A8B4BF8EEE77A67EE63
:102BF000877AC2ED007AC3ED007A3CE507EE901AC1
:102C00009FED866A9FED7D7A6D4B6C4AD3ED006A2D
:102C10006C4BF8EEE77AA7EE867AF0EE477A27EE6D
:102C2000267AC2ED017A83ED017A24E507EE901A47
:102C30009FED667A7A4BF8EEE77AC7EE877AC3EDB6
:102C4000007A18E507EE901A9FED767A9FED760AE6
:102C5000F8EEE77AA7EE870A03F046FF734B744A53
:102C60001B686049A3EB800393420860FFF456AEF3
:102C7000704A1360FFE407EE901AF8EEE77AB7EEB9
:102C8000087A67EE877A9FED517A6B4A6B4BC7EEF5
:102C9000877AB6EE007A77EE877AC2ED037AC3EDD3
:102CA000037AE8E407EE901ADFED656A9FED650AA6
:102CB000654DB8EEE77ADFED457A27EE267AF3EE3A
:102CC000046AC7EE277A77EEA67A80EE270AC5ED6A
:102CD000047A03F009FF6861CDE407EE901A9FEDD6
:102CE0003B7A5A4BF8EEE77AC7EE877AC3ED007A63
:102CF000C1E401EB4101C90007EE901A9FED337A60
:102D0000514AF8EEE77AC7EE877AFCEEE77A17EEDB
:102D1000903AD371AFE401EB4101C90007EE901A7C
:102D20009FED2A7A484AF8EEE77AC7EE877AFCEEFA
:102D3000E77A17EE903A93719DE4052002F0CAFB02
:102D400099E4042002F0C6FB95E401EB810107EE53
:102D5000901A9FED1E0AF8EEE70A80EE800A03F053
:102D6000C3FE3B4B187086E407EE901A9FED177A6E
:102D7000374BF8EEE77A82E507EE901A9FED137A6B
:102D8000DFED346A324BF8EEE77AC7EE877AB7EEBA
:102D9000007A77EE677AF4EEE67AF1EE10FA54BF35
:102DA000C3ED037AC3ED036A65E400BF5800001069
:102DB000E0000010D436E83BCDCCCC3DDC16001052
:102DC000CCF00120E42C00103333733F0000FE42AE
:102DD000E4000010EC160010667F8C3F48000010E5
:102DE000E1000010C8F001200683C13DA0000010E2
:102DF0002693493F78000020661E613D0AD7A33C18
:102E0000DB0FC9400000FA46D0F001200C1600206C
:102E1000C260B040D4160010DC2C001087C3613DA6
:102E2000A40000207D3E6A4300007A43C4150020C0
:102E3000C41B002010160020C8150020E815002033
:102E40000000FA430060EA4924000010A0000020BE
:102E5000C00000100AD7233C0000FE420000C84218
:102E600007EE901A5FED040A1FED040AF8EEE77A08
:102E7000C7EEA00A03F0E6FE774A784B9FED787A1A
:102E8000DFED787ADFED785ADFED786A20EE070A19
:102E9000B6EE005AC0EE277AB9EE046AF4EE657A0F
:102EA000F1EE10FAC2ED007AC8BFF0EE657A67EE77
:102EB000857AFAEE0E5A27EEA67AB0EE085A77EE29
:102EC000074A67EE076AA7EE246A67EE266A26EECF
:102ED000056AE7EE256AC3ED017AC6EE867AC3ED90
:102EE000027AFFF7C8BB07EE901A9FED617A614B3B
:102EF000F8EEE77AC7EE877AC3ED007AFFF7BBBB3F
:102F000001EB4101C90007EE901A9FED597A5A4A28
:102F1000F8EEE77AC7EE877AFCEEE77A17EE903A9A
:102F2000D370FFF7A8BB022002F0D4FAFFF7A3BBCF
:102F3000012002F0CFFAFFF79EBB002002F0CAFA90
:102F4000FFF799BB07EE901AB8EEE77ADFED4B7A00
:102F5000DFED476A4A4B67EE277AC7EEA67AC3EDE4
:102F6000007AFFF788BB7F297FF485AB454A137849
:102F700083F001031370FFF77EBB07EE901A9FEDFD
:102F8000427A424BF8EEE77A67EE877AC3ED027A2F
:102F9000FFF771BB07EE901A9FED3D7A3B4BF8EEC1
:102FA000E77A67EE877AC3ED007AFFF764BB07EE36
:102FB000901A9FED357A374BF8EEE77A67EE877A0D
:102FC000C3ED027AFFF757BB07EE901A9FED287A00
:102FD000304BF8EEE77AC7EE877AC3ED007AFFF759
:102FE0004ABB01EB810107EE901A9FED210AF8EE32
:102FF000E70A80EE800A03F077FD274B1870FFF791
:103000003ABB012000220323C8700A772370FFF720
:103010004EBA6422BFE541F2F45320482049012210
:10302000C254CA54FFF727BB1E4B9973FFF723BB4B
:103030001B4E1A4D96ED010A03F006FDF1EE407AA3
:1030400095ED010AC6ED017A03F0FEFCB1EE400AEF
:1030500085ED010AFFF70FBBACF00120C0000010A6
:103060000000A0420000FA463333733FDB0F4940B3
:103070000000FE42C4F001202400001077BE7F3F14
:10308000BCF001203C0500200683C13D80000010FB
:103090000402813E000000105C000010E4000010FB
:1030A000EC160010480000102DE9F047DD4D91F8B6
:1030B000383005220C462A70002B43D091F843206B
:1030C000012A064645D0012B3CD094F84C20012A19
:1030D00000F01981022B35D094F85520012A00F018
:1030E0001981032B2ED094F85E20012A00F019815B
:1030F000042B27D094F86720012A00F01981052BB2
:1031000020D094F87020012A00F01981062B19D0E4
:1031100094F87920012A00F01981072B12D094F835
:103120008220012A00F01981082B0BD094F88B2003
:10313000012A00F02181092B04D094F89430012B4E
:1031400000F01281D4F848311B6C98470220BDE88A
:10315000F08791F84420032AB5D100231B01E2181F
:10316000983291789288234408064CBF85F8441021
:1031700085F8431093F8A2104CBFA5F84620A5F897
:1031800048200A0600F1FF80B3F8A47095F84400C7
:10319000A5F8487085F84310B6F98C35002B80F2FD
:1031A0001B81B6F98E25002A80F22781B6F9902579
:1031B000002A80F21F81B6F99225002A80F2298127
:1031C000B6F99425002A80F22181B6F99625002AC5
:1031D00080F21981B6F99825002A80F21181B6F99A
:1031E0009A25002A80F21881FF210A46002B85F8D3
:1031F000421080F2EE80B6F98E35002B80F2E68028
:10320000B6F99035002B80F2DE80B6F99235002BAE
:1032100080F2D680B6F99435002B80F2CE80B6F9D4
:103220009635002B80F2C680B6F99835002B80F2D7
:10323000B680B6F99A35002BB8BFFF2380F2EF8035
:1032400006EB420085F84130B0F88C0594F821C0B7
:1032500094F8209006EB421200F07F0A4FF0000E27
:10326000C0F3C0104FF0020802F56A7382F8ADA3F4
:1032700082F8AE0382F8AC93A2F8B27382F8AFC3BF
:1032800082F8B18382F8C4E382F8C5E3BCF1000F91
:1032900001D101221A72304601F0F0FF95F8411079
:1032A00094F8217094F82080B5F846E006EB4102CE
:1032B00006EB4113B2F88C2583F8AC83184602F074
:1032C0007F090024C2F3C0124FF0020C83F8AD93C3
:1032D00083F8AE2383F8AF7383F8B1C3A3F8B2E3E6
:1032E00003F56A7380F8C44380F8C5430FB901221F
:1032F0001A72304601F0C2FF4B4A002003231070BF
:103300002B70BDE8F08794F84D1003297FF4E2AEEE
:10331000134623E794F85620032A7FF4E2AE0223F3
:103320001CE794F85F20032A7FF4E2AE134615E70A
:1033300094F86820032A7FF4E2AE04230EE794F8A1
:103340007120032A7FF4E2AE052307E794F87A2080
:10335000032A7FF4E2AE062300E794F88320032AD1
:103360007FF4E2AE0723F9E694F89530032B08BF0B
:1033700009237FF4E7AEF1E694F88C20032A7FF46A
:10338000DAAE0823EAE6B3F8A43085F8441008461C
:10339000A5F84630B5F8487095F84310FCE60623CA
:1033A0009E466FEA404006EB4E0E6FEA5040AEF884
:1033B0008C0545E705239E46F3E704239E46F0E788
:1033C00003239E46EDE702239E46EAE701239E463D
:1033D000E7E700239E46E4E70022134606EB43039B
:1033E0006FEA41416FEA5141A3F88C15B6F98C356B
:1033F0001146FBE602221346F0E701221346EDE7F1
:1034000006221346EAE705221346E7E7042213469D
:10341000E4E703221346E1E707221346DEE707232A
:103420009E46BEE7241500202015002030B50F4A27
:103430000F4B116B53F820300E4C0F4D83B00B43E4
:1034400035F8105054F820001363002401230222A1
:10345000694600958DF804308DF807308DF80640E8
:103460008DF8052000F08CFD03B030BD003802401F
:10347000348200087C00002044820008224A70B494
:103480004FF080441060238823F001031B041B0CC1
:103490002380A38923F001031B041B0C0229A381B1
:1034A0002FD042F6DF6301290CBF194600214FF0EF
:1034B00080430125188820F45C7000040526000C68
:1034C0004FF6FE741880D9621E859D821C82198871
:1034D00089B241F080011980998989B22943998183
:1034E000198889B2294319801368002BFCD14FF049
:1034F000804270BC138823F001031B041B0C138053
:1035000070470B21D3E700BF8415002030B50F4A68
:103510000F4D136B83B043F00403136301240023A6
:103520000222284669468DF805208DF806308DF870
:10353000073000948DF8044000F022FD2C832146D2
:10354000C820FFF79BFF03B030BD00BF003802402A
:10355000000802401A4A13680BB1013B1360194A74
:1035600013680BB1013B1360174A1368013B1360EA
:1035700023B9164BDB684FF400425A83144B1B7877
:1035800003B97047134B14481A690378134902F0C2
:103590000102934211D00B78013BDBB20B70002B80
:1035A000EFD10F4B10B40F4C1A700A2302700B703E
:1035B000012020705DF8044B70470A230B707047A0
:1035C0008015002074150020781500207C00002054
:1035D0003C050020000002407C15002090000020E7
:1035E0007E1500207D1500204FF08042118A9389BE
:1035F000C9079BB201D5DB0700D470474FF6FE73B5
:10360000074913820B681BB10B68013B0B607047C5
:10361000138823F001031B041B0C1380704700BFA9
:1036200084150020704700BF704700BF704700BF7F
:10363000FEE700BFFEE700BFFEE700BFFEE700BFFA
:1036400010B5064C63699B0706D5054BD3F8483186
:103650005B6998470223636110BD00BF003C0140D5
:10366000C0110020704700BFFEE700BF0D4B1B8953
:103670009B0700D470470C4B1B68022B03D0094BEF
:1036800000229A81704782B00022084B0192019378
:10369000019B0C330193019B1A60024B00229A811B
:1036A00002B0E7E7003C004000000020007400404A
:1036B00010B5F1EE087AB4EEE70AF1EE10FA2DED4E
:1036C000028B0446B0EE408A64D4DFED347AB4EE67
:1036D000670AF1EE10FAC8BFB0EE678AB0EE480A8A
:1036E00003F0BAF9BDEEC00AE3689FED2D7A9FEDB5
:1036F0002D5A10EE102A9B1A48BF03F5AF6304EB56
:10370000830292ED044A5A1E48BF03F2775204EB3B
:103710008203F8EEC07AD3ED043A531E38EE678A7E
:1037200048BF02F27753581EF0EE006A78EE666AE0
:1037300048BF03F2775004EB8302B0EE086A04EB53
:10374000800426EE877A38EE466A94ED040A92EDFC
:10375000043AFEEE004A27EE000A26EE247AF7EE3F
:10376000005A78EE655AF6EE007AA7EE030A68EE84
:10377000277A28EE258A25EE855A67EEA37A28EE69
:10378000000ABDEC028BE5EE047A66EE866AA6EED0
:10379000A70A10BDB0EE678AA0E700BF0040AE44A4
:1037A000ABAA2A3EABAA2ABE70B5114C63681A01B7
:1037B0000CD5104E104873684FF400555D8302F02D
:1037C000B9F972684FF000631583E360084C6368D1
:1037D0005B010CD5074E094873684FF400555D83B3
:1037E00002F0A8F972684FF080631583E36070BD42
:1037F000006002407C000020800B0020400500207B
:10380000D1ED027AD1ED016A9FED497AE6EE877A31
:1038100070B5F5EEC07A00F5AF561036F1EE10FA3D
:103820002DED048B0D46D6ED008AC1ED027A0446DB
:10383000B0EE408A0AD59FED3F7A77EE877AF5EEB3
:10384000C07AF1EE10FAF8D4C5ED027A9FED397A1C
:10385000F4EEC77AF1EE10FA08DB77EEC77AF4EEF1
:10386000C77AF1EE10FAF8DAC5ED027A9FED320A66
:1038700027EE800A03F038F9304BD5ED006A03EBF0
:10388000800090ED007AF7EE007A77EE277AB1EEBD
:10389000089A67EEA67A204638EEA70AC5ED037AA5
:1038A00030EE090AFFF704FF41F2F453F0EE408ACC
:1038B000E356012B35D096ED000AD4ED019A30EE97
:1038C000090A2046FFF7F4FEF0EE487AE9EE807A26
:1038D000B7EE007AF4EEC77AF1EE10FA17DDF0EEEB
:1038E000477A94ED020AE36894ED007A28EE800AA4
:1038F000BDEC048B04EB83020133B3F5AF6FA8BFBB
:103900000023A7EE870AC2ED047AE36070BDBFEE24
:10391000007AF4EE477AF1EE10FA48BFF0EE477AFB
:10392000DFE7D4ED017AA7EE808AF0EE487ACFE7A0
:103930002FE34D39DB0FC94083F92243EC94010892
:10394000F0B59E4B9E4E4FF496128DB01A60002536
:103950000095019501960095009A002A00F0838059
:10396000019A143201924FF40034019A1268144003
:1039700070D1934D934F2A8892B242F480724FF4E3
:1039800080562A801E6004E01A68561E1E60002AB7
:1039900066D0AA8AB5F818E08A4EDFF824C292B23F
:1039A00042EA0E421640BE42EED194254FF48052B8
:1039B000ACF81050DFF810E21A6004E01A68551EE7
:1039C0001D60002A4CD0BCF81420BCF818607E4D55
:1039D0007B4F92B242EA064215407545EED180B265
:1039E0004FF480523882DFF8E4E11A6004E01A688C
:1039F000551E1D60002A33D0BA8A3E8B734DDFF806
:103A0000C0C192B242EA064215407545EFD14FF46B
:103A100096158AB2ACF8102066461D600127002575
:103A200009E0039A14320392039A126852071FD4D2
:103A30001A68013A1A600295039503960297029A52
:103A4000DFF87CE1002AECD1039A18320392039A42
:103A50001268EDE71A68541E1C60002A7FF478AFE4
:103A600000200DB0F0BD019A1832019202247CE7CB
:103A7000BEF8002092B24FF4961542F40072AEF8F0
:103A8000002076461D600025049505950596049551
:103A9000049A002A69D0059A143205924FF400372F
:103AA000059A1268174257D1454D464F2A8892B25F
:103AB00042F480724FF480562A801E6004E01A6837
:103AC000561E1E60002A4CD0AA8AB5F818E03D4E5A
:103AD000DFF8ECC092B242EA0E421640BE42EED18E
:103AE00094254FF48052ACF81050374F1A6004E020
:103AF0001A68551E1D60002A33D0BCF81420BCF88B
:103B00001860314DDFF8B8E092B242EA0642154043
:103B1000BD42EDD14FF48052AEF810000025704642
:103B20001A6001270AE0079E14360796079E36683A
:103B300076071FD41A68561E1E6092B10695079527
:103B400007900697069E1E4A002EECD1079A18325F
:103B50000792079A1268EDE71A68571E1F60002A3D
:103B600092D1081B18BF01207BE7059A18320592F5
:103B7000022795E71088DFF84CE080B240F48070AF
:103B80004FF48055108010461D6004E01A68551EE1
:103B90001D60002AE5D0828A068B0A4D084F92B23A
:103BA00042EA064215407545F0D195204FF4805207
:103BB000388201261A60002016E000BF8C00002029
:103BC000005400400100030082000700800007004D
:103BD000099D14350995099D2D68AD0712D41A6801
:103BE000551E1D60002ABCD00890099009970896C0
:103BF000089D274A002DEBD1099A18320992099A9B
:103C00001268ECE7108820F480600004000C10803B
:103C1000108B108880B240F400704FF480551080F3
:103C200000261D6001270BE00B9D14350B950B9DA5
:103C30002D686D0612D41868451E1D60002890D0AE
:103C40000A960B960B920A970A9D1148002DEBD10C
:103C50000B9818300B900B980068ECE7058A4FF42E
:103C60008052ADB21A6005E01A68561E1E60002A26
:103C70003FF477AF0688064AB605F5D413889BB2A1
:103C800043F480634FF6FF301380ECB2908268E714
:103C900000540040014801F003BE00BF141600208C
:103CA00000B54F484F4B984283B007D2C2431A44E5
:103CB00022F0030204324C4902F0DEFD524853491F
:103CC0004FF000028842B8BF40F8042BFADBDFF85F
:103CD0004001016841F4700101604449444BD1F84E
:103CE0008820444842F47002C1F888201A680021F4
:103CF00042F001021A6099601A6822F0847222F47C
:103D000080321A6058601A6822F480221A60D960E2
:103D1000009101911A6842F480321A601A4603E059
:103D2000009BB3F5A04F09D0136803F4003301934F
:103D3000009B01330093019B002BF1D02C4B1B689F
:103D400013F4003318BF01230193019B012B14D0FE
:103D5000274A2949936823F400039360C2F884102A
:103D6000136843F08063136013681B01FCD51F4B7D
:103D70004FF000629A60FCF707FA1D4B1F491A6C5E
:103D80001F4842F080521A640A6842F440420A60B6
:103D90009A689A609A6842F400429A609A6842F47B
:103DA000A0529A6058601A6842F080721A601A46EF
:103DB00011680F4B8901FBD5124A40F20571116061
:103DC0009A6822F003029A609A6842F002029A60AE
:103DD0001A46936803F00C03082BFAD1B8E700BF2A
:103DE000000000203C050020442F0D0800ED00E0FD
:103DF0000038024010300024806A0040007000400B
:103E000008544007003C02403C050020D8F0012047
:103E100088ED00E0002070470023C0F810331846FA
:103E2000704700BF0123C0F810330020704700BF67
:103E30002DE9F0071B4FDFF870C03E687D69BC6953
:103E4000D7F834A0D7F83890D7F8308007F11C01A4
:103E50000EC983B00193FB681E4335432C432143B5
:103E6000019BFC6A3E697D680A431A43BB6ABF68CE
:103E70001A43036842EA0A0203EA0C0C42EA090206
:103E800042EA0C020260436948EA040223F0070395
:103E90001343436146608560C76003B0BDE8F00727
:103EA000704700BF881500203F801CF0F0B5304BF4
:103EB0003048DC68304983B0002301934FF0030C95
:103EC0004FF080424FF00B0E052701264FF6FE758E
:103ED000C1F800C0138823F001031B041B0C1380DE
:103EE000938923F001031B041B0C9381138823F493
:103EF0005C731B041B0C1380C2F82CE017859682A0
:103F0000158213889BB243F08003138093899BB280
:103F100043F00103938113889BB243F001031380A4
:103F20000B68002BFCD1138823F001031B041B0C2E
:103F3000138023690193013817D0019B002BC7DA46
:103F4000019A0E4B42F001020192019A226122690C
:103F5000019203E022690192013B02D0019AD2074B
:103F6000F8D403200221FFF789FA002003B0F0BD46
:103F700014160020410D030084150020400D03009D
:103F800000222DE9F0431346D1F800E001274FF05D
:103F9000030C04E00133102B02F1020228D007FACF
:103FA00003F404EA0E05A542F4D1D0F800800E799E
:103FB0000CFA02F4E44304EA0808C0F80080D0F8E0
:103FC000008006FA02F9013E49EA0808012EC0F80D
:103FD00000800FD9C568CE792C40C460C56806FA48
:103FE00002F401332C43102BC46002F10202D6D13B
:103FF000BDE8F083D0F8089091F805808E7904EA46
:104000000909C0F80890D0F8089008FA02F848EAC0
:104010000908C0F80880D0F8048028EA0505456042
:10402000D0F8048006FA03F5ADB245EA080545600C
:10403000D0E700BF80B485B000AF78607B68D3F86C
:1040400090301B68BB60FB7A43F08003FB72FB7A05
:1040500043F04003FB727B68D3F89030BA681A6073
:104060000023FB60BB7B43F02003BB737B68DB68F2
:10407000FA685A61012318461437BD465DF8047B7F
:10408000704700BF80B588B000AF78600023FB7236
:1040900000237B613B7D43F010033B757B68DB684D
:1040A0007A68D26891697A69D2430A409A617B68DA
:1040B000DB681B6ABB613B7EC3F30303DBB2FB72AD
:1040C000FB7ADBB27A6822339B0013449B681B683F
:1040D000FB60BB7EC3F34303DBB2022B40F08C805A
:1040E0003B8BC3F30A139BB2002B40F38580FB7A12
:1040F000DBB27A6815335B01134403F588739B6860
:10410000002B79D0FB7ADBB27A6815335B0113445C
:1041100003F588739A683B8BC3F30A139BB27868E4
:1041200011461A4601F0AEF93B7EC3F30303DBB23E
:1041300018463B7EC3F30303DBB27A6815335B0199
:10414000134403F588739B683A8BC2F30A1292B248
:104150001A44796800F115035B010B4403F5887379
:104160009A603B7EC3F30303DBB218463B7EC3F386
:104170000303DBB27A685B01134403F56E739B683B
:104180003A8BC2F30A1292B21A44796843010B4483
:1041900003F56E739A60FB7ADBB27A685B011344B5
:1041A00003F56E739B68FB61FB7ADBB21A467B6892
:1041B000D432F96943F82210FB7ADBB27A682233F1
:1041C0009B0013449B681B693B617B8AC3F3C90353
:1041D0009BB2002B10DDFB7B43F08003FB73FB7B6A
:1041E0006FF38613FB73FB7ADBB27A6822339B0092
:1041F00013449B68FA681A603B7D43F010033B75DB
:104200007B68DB687A68D26891697A690A439A6147
:10421000012318462037BD4680BD00BF80B59CB045
:1042200000AF786039607A683B6822339B001344A2
:104230009B68FB66FB6E9B68BB66FB6EDB687B6600
:10424000BA6E7B6E1340BB667A683B6822339B0074
:1042500013449B681B683B6600237B6697F86830B5
:1042600003F00403DBB2002B1DD00023FB603B7B7B
:1042700043F004033B73FA68FB6E9A607A683B680C
:1042800022339B0013449B68DB683B613B7C43F01B
:1042900002033B747A683B6822339B0013449B689B
:1042A0003A69DA6093E097F8683003F02003DBB2F4
:1042B000002B09D000237B613B7D43F020033B753D
:1042C0007A69FB6E9A6082E097F8683003F0080321
:1042D000DBB2002B3BD07A683B6822339B0013444F
:1042E0009B68DB68BB613B7E43F002033B767A68E8
:1042F0003B6822339B0013449B68BA69DA607A6892
:104300003B68134403F5627305221A710023FB61B5
:104310003B7F43F010033B77FA69FB6E9A60002302
:104320003B6297F8203043F0080387F820303A6A60
:10433000FB6E9A6097F868306FF3041387F8683063
:104340003B68DBB27868194600F078FF3FE097F8E9
:10435000693003F00403DBB2002B38D07A683B6885
:1043600022339B0013449B68DB687B6297F8243000
:1043700043F0020387F824307A683B6822339B00BD
:1043800013449B687A6ADA603B68DBB27868194646
:1043900000F054FF0023BB6297F8283043F010036D
:1043A00087F82830BA6AFB6E9A607A683B681344D3
:1043B00003F5627308221A710023FB6297F82D300F
:1043C00043F0040387F82D30FA6AFB6E9A6097F881
:1043D000693003F00203DBB2002B27D07A683B6818
:1043E00022339B0013449B68DB683B6397F83030B3
:1043F00043F0020387F830307A683B6822339B0031
:1044000013449B683A6BDA603B68DBB27868194604
:1044100000F014FF00237B6397F8353043F002036C
:1044200087F835307A6BFB6E9A60C5E197F8683093
:1044300003F00103DBB2002B00F099807B68DB788E
:10444000012B17D17A683B6822339B0013449B6889
:104450001B69FB657A683B685B01134403F56E7367
:104460005B68FA6DC2F31202991A7B683A68D4321B
:1044700043F822107A683B68134403F56273012203
:104480001A717A683B68C4339B00134400225A6057
:104490000023BB6397F8383043F0010387F83830C6
:1044A000BA6BFB6E9A6097F8623003F00C03DBB2D4
:1044B000002B06D097F8623003F00C03DBB2082B18
:1044C00037D17A683B6822339B0013449B68DB68D2
:1044D000FB6397F83C3043F0020387F83C307A687E
:1044E0003B6822339B0013449B68FA6BDA603B689D
:1044F000DBB27868194600F0A1FE00233B6497F810
:10450000403043F0100387F840303A6CFB6E9A60FD
:104510007A683B681E335B0113441B7983F0010307
:10452000D9B27A683B681E335B0113440A461A719C
:1045300042E197F8623003F00C03DBB20C2B40F041
:104540003B8197F8633043F0200387F863307A6843
:104550003B6822339B0013449B683A6E1A607A686A
:104560003B68134403F566730122DA7024E197F87F
:10457000683003F00203DBB2002B7BD07A683B6823
:1045800022339B0013449B68DB687B6497F84430BC
:104590006FF3410387F844307A683B6822339B000D
:1045A00013449B687A6CDA607A683B68134403F5BD
:1045B00062731B79DBB2012B07D17A683B68134425
:1045C00003F566730122DA7048E07A683B681344A9
:1045D00003F562731B79DBB2052B07D17A683B6860
:1045E000134403F566730422DA7037E07A683B6897
:1045F000134403F562731B79DBB2062B08D07A688B
:104600003B68134403F562731B79DBB2082B0ED1B0
:104610007A683B68C4339B00134400225A607A686E
:104620003B68134403F566730322DA7016E097F8CB
:10463000623003F00C03DBB20C2B0FD17A683B68BD
:104640001E335B0113441B7983F00103D9B27A68EE
:104650003B681E335B0113440A461A710023BB6496
:1046600097F8483043F0020387F84830BA6CFB6E85
:104670009A60A1E097F8683023F07F03DBB2002B4B
:104680003BD07A683B6822339B0013449B68DB680D
:10469000FB6497F84C3043F0020387F84C307A689B
:1046A0003B6822339B0013449B68FA6CDA607A689B
:1046B0003B68C4339B0013445B685A1C79683B68B1
:1046C000C4339B000B445A607A683B68134403F57B
:1046D000627306221A713B68DBB27868194600F0F3
:1046E000ADFD00233B6597F8503043F0800387F819
:1046F00050303A6DFB6E9A605EE097F8683003F0D8
:104700001003DBB2002B57D097F8623003F00C0394
:10471000DBB20C2B1CD17A683B6822339B0013441C
:104720009B68DB687B6597F8543043F0020387F899
:1047300054307A683B6822339B0013449B687A6D3F
:10474000DA603B68DBB27868194600F077FD21E05B
:1047500097F8623003F00C03DBB2002B06D097F819
:10476000623003F00C03DBB2082B13D197F86330EF
:1047700043F0800387F8633097F863306FF3861354
:1047800087F863307A683B6822339B0013449B6848
:104790003A6E1A607A683B68134403F56273032229
:1047A0001A710023BB6597F8583043F0100387F85F
:1047B0005830BA6DFB6E9A60012318467037BD46BB
:1047C00080BD00BF80B59AB000AF786039607A686C
:1047D0003B6822339B0013449B687B667B6E9B681F
:1047E0003B667B6EDB68FB653A6EFB6D13403B6698
:1047F0007A683B6822339B0013449B681B68BB6547
:1048000097F8603003F00403DBB2002B1DD00023C7
:10481000BB603B7A43F004033B72BA687B6E9A60DC
:104820007A683B6822339B0013449B68DB68FB601B
:104830003B7B43F002033B737A683B6822339B0067
:1048400013449B68FA68DA605CE297F8603003F022
:104850002003DBB2002B09D000233B613B7C43F0FB
:1048600020033B743A697B6E9A604BE297F86130A3
:1048700003F00203DBB2002B23D07A683B682233BB
:104880009B0013449B68DB687B613B7D43F0020324
:104890003B757A683B6822339B0013449B687A69B6
:1048A000DA603B68DBB27868194600F0C7FC002389
:1048B000BB617B7E43F002037B76BA697B6E9A60B4
:1048C00020E297F8603003F00103DBB2002B33D015
:1048D0007A683B68C4339B00134400225A607A68AC
:1048E0003B6822339B0013449B68DB68FB613B7F82
:1048F00043F002033B777A683B6822339B00134402
:104900009B68FA69DA603B68DBB27868194600F0A8
:1049100095FC00233B6297F8203043F0010387F8B1
:1049200020303A6A7B6E9A607A683B68134403F5DC
:10493000627301221A71E5E197F8603003F0080311
:10494000DBB2002B2ED000237B6297F8243043F09B
:10495000080387F824307A6A7B6E9A607A683B682D
:1049600022339B0013449B68DB68BB6297F82830B6
:1049700043F0020387F828307A683B6822339B00B3
:1049800013449B68BA6ADA603B68DBB27868194600
:1049900000F054FC7A683B68134403F56273052207
:1049A0001A71AFE197F8603003F01003DBB2002B0F
:1049B00035D07A683B68C4339B00134400225A60A8
:1049C0007A683B6822339B0013449B68DB68FB6278
:1049D00097F82C3043F0020387F82C307A683B6854
:1049E00022339B0013449B68FA6ADA603B68DBB2AF
:1049F0007868194600F022FC00233B6397F83030BA
:104A000043F0100387F830303A6B7B6E9A607A6817
:104A10003B68134403F5627303221A7172E197F83D
:104A2000603023F07F03DBB2002B3BD07A683B6819
:104A300022339B0013449B68DB687B6397F8343018
:104A400043F0020387F834307A683B6822339B00D6
:104A500013449B687A6BDA603B68DBB2786819466E
:104A600000F0ECFB7A683B68C4339B0013445B683E
:104A70005A1C79683B68C4339B000B445A607A68BF
:104A80003B68134403F5627306221A710023BB636B
:104A900097F8383043F0800387F83830BA6B7B6E74
:104AA0009A602FE197F8603003F04003DBB2002BEF
:104AB00035D07A683B68C4339B00134400225A60A7
:104AC0007A683B6822339B0013449B68DB68FB6376
:104AD00097F83C3043F0020387F83C307A683B6833
:104AE00022339B0013449B68FA6BDA603B68DBB2AD
:104AF0007868194600F0A2FB00233B6497F8403029
:104B000043F0400387F840303A6C7B6E9A607A68D5
:104B10003B68134403F5627304221A71F2E097F8BC
:104B2000613003F00403DBB2002B39D07A683B68B4
:104B300022339B0013449B68DB687B6497F8443006
:104B400043F0020387F844307A683B6822339B00C5
:104B500013449B687A6CDA603B68DBB2786819466C
:104B600000F06CFB0023BB6497F8483043F010035F
:104B700087F84830BA6C7B6E9A607A683B68134459
:104B800003F5627308221A710023FB6497F84D3015
:104B900043F0040387F84D30FA6C7B6E9A60B1E005
:104BA00097F8603003F00203DBB2002B00F0AA801C
:104BB0007A683B6822339B0013449B68DB683B6543
:104BC00097F850306FF3410387F850307A683B68AC
:104BD00022339B0013449B683A6DDA607A683B6825
:104BE000134403F562731B79DBB2012B1ED17A6883
:104BF0003B68134403F566730122DA7097F85A3064
:104C000003F00C03DBB2082B71D17A683B681E33CA
:104C10005B0113445B7983F00103D9B27A683B6886
:104C20001E335B0113440A465A7160E07A683B68A0
:104C3000134403F562731B79DBB2032B07D17A6847
:104C40003B68134403F566730222DA704FE07A681A
:104C50003B68134403F562731B79DBB2042B16D156
:104C60007A683B685B01134403F56A731B7A012B76
:104C700005D13B68DBB27868194600F0CDFA7A6856
:104C80003B68134403F566730222DA702FE07A68FA
:104C90003B68134403F562731B79DBB2052B07D124
:104CA0007A683B68134403F566730422DA701EE0E9
:104CB0007A683B68134403F562731B79DBB2062BF9
:104CC00015D17A683B68C4339B0013445B68032B9F
:104CD0000DD17A683B68134403F566730322DA70DA
:104CE0007A683B68C4339B00134400225A60002357
:104CF0007B6597F8543043F0020387F854307A6D9F
:104D00007B6E9A60012318466837BD4680BD00BFA0
:104D100080B588B000AF78600023FB610023BB61E1
:104D20000023FB6000237B6100233B617B68D3F899
:104D3000CC301B687B617B68D3F8CC301B683B614F
:104D40003B7C6FF382033B743B7C6FF341033B740A
:104D50003B7C6FF3C3033B743B7C6FF345133B74A5
:104D60003B7D03F00203DBB2002B0CD03B7C43F015
:104D700002033B743F4B1B685B6878689847BB69CC
:104D800043F00103BB613B7D03F00803DBB2002B62
:104D900052D03B7C43F008033B743B7D03F004039B
:104DA000DBB2002B48D0334B1B685B6878689847B0
:104DB000BB7D03F00603DBB2042B05D0BB7D03F003
:104DC0000603DBB2022B31D17B685B691B68FB6099
:104DD000BB7D03F00603DBB2042B15D17B685B6956
:104DE00041F270725A603B7B03F00303DBB2022B8B
:104DF0001FD07B681B7A022B03D17868022100F058
:104E00003BFB0123FB6116E07B685B694BF680325C
:104E10005A603B7B03F00303DBB2012B0BD07868B5
:104E2000012100F029FB0123FB6104E00123FB6168
:104E300002E000BF00E000BF3B7D03F02003DBB2D7
:104E4000002B07D03B7C43F020033B74BB6943F04D
:104E50000103BB61FB69002B02D0786800F084FA83
:104E60007B68D3F8CC303A691A60BB6918462037A2
:104E7000BD4680BD4C82000890B587B000AF786019
:104E80007B685B691B69BB603B7BC3F3C303DBB21D
:104E90007A685B01134403F56E735B6803339B0808
:104EA000FB8298E03B899B00BB82BA8A3B7BC3F3C1
:104EB000C303DBB279685B010B4403F56E735B6877
:104EC0009A4219D93B7BC3F3C303DBB27A685B0117
:104ED000134403F56E735B68BB8200233B61FB7C6C
:104EE00043F00403FB747B68DB687A68D2689169DD
:104EF0003A69D2430A409A613B7BC3F3C303DBB2F6
:104F00007A685B01134403F56E735B6803339B0897
:104F1000FB823B7BC3F3C303DBB27A6815335B01CF
:104F2000134403F588739A683B7BC3F3C303DBB276
:104F30001C46BB8A78681146224600F0B7FA3B7BD4
:104F4000C3F3C303DBB218463B7BC3F3C303DBB23B
:104F50007A6815335B01134403F588739A68BB8A3A
:104F60001A44796800F115035B010B4403F588735B
:104F70009A603B7BC3F3C303DBB218463B7BC3F3AE
:104F8000C303DBB27A685B01134403F56E735A689E
:104F9000BB8AD21A796843010B4403F56E735A60D9
:104FA0003B7BC3F3C303DBB218463B7BC3F3C303B2
:104FB000DBB27A685B01134403F56E739A68BB8AAF
:104FC0001A44796843010B4403F56E739A607B6859
:104FD0005B691B69BB603B89FA8A9A420CD23B7BB6
:104FE000C3F3C303DBB27A685B01134403F56E734A
:104FF0005B68002B7FF456AF012318461C37BD4673
:1050000090BD00BF90B589B000AF78607B68DB6869
:10501000DB6AFB603B7CC3F3C303DBB27A685B01F2
:10502000134403F56E735B6803339B08FB8398E0BE
:10503000BB899B00BB83BA8B3B7CC3F3C303DBB24E
:1050400079685B010B4403F56E735B689A4219D96A
:105050003B7CC3F3C303DBB27A685B01134403F503
:105060006E735B68BB830023BB613B7E43F0200310
:105070003B767B68DB687A68D2689169BA69D2430B
:105080000A409A613B7CC3F3C303DBB27A685B01DD
:10509000134403F56E735B6803339B08FB833B7C0F
:1050A000C3F3C303DBB27A6815335B01134403F522
:1050B00088739A683B7CC3F3C303DBB21C46BB8B8B
:1050C00078681146224600F0F1F93B7CC3F3C30334
:1050D000DBB218463B7CC3F3C303DBB27A681533FB
:1050E0005B01134403F588739A68BB8B1A44796893
:1050F00000F115035B010B4403F588739A603B7C58
:10510000C3F3C303DBB218463B7CC3F3C303DBB278
:105110007A685B01134403F56E735A68BB8BD21A2D
:10512000796843010B4403F56E735A603B7CC3F30B
:10513000C303DBB218463B7CC3F3C303DBB27A681C
:105140005B01134403F56E739A68BB8B1A4479684C
:1051500043010B4403F56E739A607B68DB68DB6A7E
:10516000FB60BB89FA8B9A420CD23B7CC3F3C3032E
:10517000DBB27A685B01134403F56E735B68002B46
:105180007FF456AF012318462437BD4690BD00BFBB
:1051900080B584B000AF78600023FB60084B1B68CB
:1051A0009B6878689847FB7B43F02003FB737B6820
:1051B000DB68FA685A61012318461037BD4680BD86
:1051C0004C82000880B584B000AF78600023FB609B
:1051D000084B1B681B68786898473B7B43F00803C3
:1051E0003B737B68DB68FA685A6101231846103705
:1051F000BD4680BD4C82000843695869704700BFB6
:10520000C3685A6998691040704700BFC3685869FD
:1052100000F00100704700BF00EB81014FF0004338
:10522000D1F89020012161F3DC4313611368002061
:1052300043F0004360F39E731360704700EB8101FD
:1052400086B0D1F89020136843F0404359030AD543
:1052500041690969C1F3074109B96FF3DF730020A0
:10526000136006B07047C168C96AC1F307410029DD
:10527000F3D00020136006B0704700BFF0B500EB1C
:1052800081034FF0FF32D3F890504B01AA600E46D5
:10529000C118C27891F8B113012A14BF0024042464
:1052A0000022032913D8DFE801F002530247C11896
:1052B00001F56A718F7944F4936444F00104002F7E
:1052C00043D1097A44F0400409B144F02004D0F8F5
:1052D00014E0EC60DEF81840C7680121B1402143BA
:1052E000CEF81810B969184441F00073BB6190F80A
:1052F000AC7390F8AD6390F8AE4390F8AF3390F88C
:10530000B11367F39C5266F3CE2200F56A7064F322
:10531000CF32A3F10203B3FA83F35B09408963F34D
:10532000514261F3934260F30A02032908BF42F03D
:1053300000522A600020F0BDC11844F4D36491F8F3
:10534000AE1344F001040029C1D044F48074BEE7D8
:10535000C11844F4087491F8AE1344F00104002914
:10536000B5D044F4C074B2E7F0B5D0F8CC50414B9E
:105370002C686FF382046FF341046FF3C3046FF37F
:1053800045144FF080420A2144F480742C60196067
:10539000118821F001010904090C1180918921F083
:1053A00001010904090C9181118821F45C7109043F
:1053B0000126090C42F6DF6E05274FF6FE701180BC
:1053C000C2F82CE0178596821082118889B241F0CC
:1053D00080011180918989B231439181118889B20C
:1053E000314311801A682348002AFBD14FF08041D5
:1053F00062F308240A8822F001021204120C142617
:105400000A802C6006600A8822F001021204120C45
:105410000A808A8922F001021204120C8A810A8809
:1054200022F45C7212040124120C42F6DF66052598
:105430004FF6FE700A80CE620D858C8208820A8843
:1054400092B242F080020A808A8992B222438A8113
:105450000A8892B222430A801A68002AFCD14FF0CF
:1054600080420120138823F001031B041B0C1380CE
:10547000F0BD00BF841500204269136861F3010389
:10548000136070470332921030B4D0F8D05009D076
:105490000846002301332C6840F8044B9A42F9D1A6
:1054A00001EB8201084630BC704700BF30B4C478BD
:1054B0006CB900EB820003339B10D0F8D05006D0BB
:1054C0002246013251F8040B28609342F9D10020A2
:1054D00030BC704701EB4101CB0007EE903A9FEDE5
:1054E000067A064AF8EEE77AC7EE877AFCEEE77AA4
:1054F00017EE903A135470470000FE42240000104B
:1055000090ED066ADFED882AD0ED016A9FED877A7B
:10551000DFED874AD0ED043A90ED053AD0ED027AFE
:10552000037820EE065AB6EE002A65EE025AF2EE35
:105530000E0A65EEA55AF0EE621AE5EEA01A013BDE
:10554000F4EEC76A9FED7B7A2DED028BF0EE478A71
:10555000E5EEA18A35EEA46AF0EE681AF0EE478A0D
:10556000E5EE868AF1EE10FA88EEA16AB8BF90EDFA
:10557000031A90ED078A25EE066AB4BF31EE014AA0
:10558000B0EE004A36EE085A64EE636A63EE825A61
:10559000E5EE026A65EEA55A76EEC36AB0EE628A5F
:1055A00066EE826AA5EEA08A66EEA66A35EEA45A79
:1055B000E6EEA02AF0EE478AB0EE472AA5EE882A4A
:1055C00076EEA44AE5EE858AF0EE475AE6EEA25A58
:1055D000A6EEA47AF0EE652A87EE227AF7EE001A9C
:1055E00067EE872AA8BFB7EE001A72EEA22AF0EE85
:1055F000616AE1EE226A88EE825AC1EEA62A67EE5F
:10560000A75A37EE072A65EEA25A22EE412A65EE26
:10561000875A27EEA21A65EE856AF0EE435AE6EE47
:10562000865A21EE051A76EEA16AE3EE815A77EEEC
:10563000A74AC5EEA66A64EE850A76EE665A80ED44
:10564000076A25EE877A67EE877AE3EE857A67EE5A
:10565000A27AA2EE277AA0EEA73A64EE874A80EDFE
:10566000053AE3EE854AC0ED044A042B1ED8DFE874
:1056700003F003424B503700DFED2F7AF4EEE76A78
:10568000F1EE10FA1ED4DFED2D7AF4EEE76AF1EEBA
:1056900010FA45DC9FED2A0ADFED2A7AB0EE406A67
:1056A000A6EEA66A66EEA76A86EE860AF7EE007A8E
:1056B000B4EEE70AF1EE10FA06DDB0EE670ABDECD3
:1056C000028B7047BFEE000AFFEE007AB4EE670A65
:1056D000F1EE10FA48BFB0EE670ABDEC028B7047DE
:1056E000A7EEC46ADFED187A36EE660A76EEC06A77
:1056F00026EEA70ADAE7A7EEC46A9FED130A76EE54
:10570000666A26EE800AD1E79FED0F0A27EE800A2F
:10571000CCE7A7EEC46ADFED0C7A26EE270AC5E7D0
:10572000B7EE000AD0E700BF0000D2434B59E63E77
:105730000000D24200406C449A99F9BF9A99F93F0F
:10574000AE478940CDCC8440AE47613F07EE900A1A
:10575000F8EEE70ADFED257A9FED250A08B5C0EEE1
:10576000A70A01F06FFA234BDFED237ADFED236AFE
:105770009FED237A20EE270A80EE260AB4EEC70AB0
:10578000F1EE10FA83ED000A09DD1E4BDFED1E7A03
:105790009FED1E0AC3ED027A83ED010A08BDF6EE05
:1057A000007A20EE270ADFED1A6A164B60EE266AB1
:1057B000F9EE047A36EEA66A26EEA67AE6EE867A48
:1057C00083ED010AB0EE676A66EE877ABAEE0E7A6A
:1057D000E6EE877AB0EE677AF0EE087A66EE277A20
:1057E000C7EE277AC3ED027A08BD00BF0000FE4273
:1057F0000000C842A8F001200000A0420000FA46C4
:105800003333733F5C00001003123A413333F33EED
:10581000DB0F494080B586B000AF786000237B6124
:1058200000233B617868FFF7E7FC0346FB60002339
:105830007B612AE0BB891A467B6942FA03F303F0D5
:105840000103002B1ED07A687B6922339B0013442E
:105850009B681B68BB607B7A23F07F03DBB2002B65
:1058600008D078687969FEF7D9FC02463B69134392
:105870003B6107E078687969FEF7A4FF02463B695F
:1058800013433B617B6901337B617B681B781A465C
:105890007B699A42CED83B6918461837BD4680BD11
:1058A00080B584B000AF78600023FB600023BB604C
:1058B0007868FFF7ABFC0346002B71D07868FFF7E0
:1058C0009FFC0346BB60BB68002B01D1002368E04E
:1058D0003B7A03F00803DBB2002B06D07868FFF7B1
:1058E00071FC0246FB681343FB603B7A03F0100334
:1058F000DBB2002B06D07868FEF7C4FB0246FB68DB
:105900001343FB603B7A03F02003DBB2002B06D08D
:105910007868FFF777FB0246FB681343FB60FB7A6E
:1059200003F00403DBB2002B06D07868FFF7A4FA7B
:105930000246FB681343FB60FB7A03F00203DBB211
:10594000002B06D07868FFF765FF0246FB6813431B
:10595000FB60FB7A03F00103DBB2002B06D0786812
:10596000FFF7D6F90246FB681343FB60FB7A03F0AE
:105970002003DBB2002B06D07868FFF709FC024653
:10598000FB681343FB60BB7A03F02003DBB2002B00
:1059900006D07868FEF74EFB0246FB681343FB60B7
:1059A000FB6818461037BD4680BD00BF4D4B2DE942
:1059B000F0414401191901F56E76726886B0002530
:1059C0007AB1B1F8B273511E3944B1FBF7F189B223
:1059D000B1F5807F75D93A024FF4807E72607146CE
:1059E00002E04FF0010E71461E1996F8AEC3BCF1ED
:1059F000000F05D0B6F8B22302FB01F2C6F8BC23B3
:105A000000F1150703EB471193F803C091F81481D7
:105A100003EB800601F5887162F31205D6F89060F9
:105A2000BCF1010F6EF3DC4508BF8968D3F814E0C0
:105A3000DFF8B0C068F35E75356108BF7161316829
:105A4000DEF8085005F0010585F0010565F35D718C
:105A500041F000416FF39E713160D97869BB6444B5
:105A600004F56A74A17941BB3AB3617A032911D86C
:105A7000DFE801F02A022A02DEF810400194D11C6E
:105A8000A4B2C1F38F018C4204D2DC68A16941F059
:105A90008061A16192B203EB4717033203EB8003ED
:105AA0009210D7F81811D3F8D04006D00023013354
:105AB00051F8040B20609A42F9D1002006B0BDE8ED
:105AC000F081C1F3090E8FE7DD68EC6A0394D11C05
:105AD000A4B2C1F38F018C42DCD2A96941F020014C
